{
  "contractName": "EGGMOS",
  "abi": [
    {
      "inputs": [],
      "stateMutability": "nonpayable",
      "type": "constructor"
    },
    {
      "anonymous": false,
      "inputs": [
        {
          "indexed": true,
          "internalType": "address",
          "name": "owner",
          "type": "address"
        },
        {
          "indexed": true,
          "internalType": "address",
          "name": "spender",
          "type": "address"
        },
        {
          "indexed": false,
          "internalType": "uint256",
          "name": "value",
          "type": "uint256"
        }
      ],
      "name": "Approval",
      "type": "event"
    },
    {
      "anonymous": false,
      "inputs": [
        {
          "indexed": true,
          "internalType": "address",
          "name": "from",
          "type": "address"
        },
        {
          "indexed": true,
          "internalType": "address",
          "name": "to",
          "type": "address"
        },
        {
          "indexed": false,
          "internalType": "uint256",
          "name": "value",
          "type": "uint256"
        }
      ],
      "name": "Transfer",
      "type": "event"
    },
    {
      "inputs": [
        {
          "internalType": "address",
          "name": "owner",
          "type": "address"
        },
        {
          "internalType": "address",
          "name": "spender",
          "type": "address"
        }
      ],
      "name": "allowance",
      "outputs": [
        {
          "internalType": "uint256",
          "name": "",
          "type": "uint256"
        }
      ],
      "stateMutability": "view",
      "type": "function",
      "constant": true
    },
    {
      "inputs": [
        {
          "internalType": "address",
          "name": "spender",
          "type": "address"
        },
        {
          "internalType": "uint256",
          "name": "amount",
          "type": "uint256"
        }
      ],
      "name": "approve",
      "outputs": [
        {
          "internalType": "bool",
          "name": "",
          "type": "bool"
        }
      ],
      "stateMutability": "nonpayable",
      "type": "function"
    },
    {
      "inputs": [
        {
          "internalType": "address",
          "name": "account",
          "type": "address"
        }
      ],
      "name": "balanceOf",
      "outputs": [
        {
          "internalType": "uint256",
          "name": "",
          "type": "uint256"
        }
      ],
      "stateMutability": "view",
      "type": "function",
      "constant": true
    },
    {
      "inputs": [],
      "name": "decimals",
      "outputs": [
        {
          "internalType": "uint8",
          "name": "",
          "type": "uint8"
        }
      ],
      "stateMutability": "view",
      "type": "function",
      "constant": true
    },
    {
      "inputs": [
        {
          "internalType": "address",
          "name": "spender",
          "type": "address"
        },
        {
          "internalType": "uint256",
          "name": "subtractedValue",
          "type": "uint256"
        }
      ],
      "name": "decreaseAllowance",
      "outputs": [
        {
          "internalType": "bool",
          "name": "",
          "type": "bool"
        }
      ],
      "stateMutability": "nonpayable",
      "type": "function"
    },
    {
      "inputs": [
        {
          "internalType": "address",
          "name": "spender",
          "type": "address"
        },
        {
          "internalType": "uint256",
          "name": "addedValue",
          "type": "uint256"
        }
      ],
      "name": "increaseAllowance",
      "outputs": [
        {
          "internalType": "bool",
          "name": "",
          "type": "bool"
        }
      ],
      "stateMutability": "nonpayable",
      "type": "function"
    },
    {
      "inputs": [],
      "name": "name",
      "outputs": [
        {
          "internalType": "string",
          "name": "",
          "type": "string"
        }
      ],
      "stateMutability": "view",
      "type": "function",
      "constant": true
    },
    {
      "inputs": [],
      "name": "symbol",
      "outputs": [
        {
          "internalType": "string",
          "name": "",
          "type": "string"
        }
      ],
      "stateMutability": "view",
      "type": "function",
      "constant": true
    },
    {
      "inputs": [],
      "name": "totalSupply",
      "outputs": [
        {
          "internalType": "uint256",
          "name": "",
          "type": "uint256"
        }
      ],
      "stateMutability": "view",
      "type": "function",
      "constant": true
    },
    {
      "inputs": [
        {
          "internalType": "address",
          "name": "recipient",
          "type": "address"
        },
        {
          "internalType": "uint256",
          "name": "amount",
          "type": "uint256"
        }
      ],
      "name": "transfer",
      "outputs": [
        {
          "internalType": "bool",
          "name": "",
          "type": "bool"
        }
      ],
      "stateMutability": "nonpayable",
      "type": "function"
    },
    {
      "inputs": [
        {
          "internalType": "address",
          "name": "sender",
          "type": "address"
        },
        {
          "internalType": "address",
          "name": "recipient",
          "type": "address"
        },
        {
          "internalType": "uint256",
          "name": "amount",
          "type": "uint256"
        }
      ],
      "name": "transferFrom",
      "outputs": [
        {
          "internalType": "bool",
          "name": "",
          "type": "bool"
        }
      ],
      "stateMutability": "nonpayable",
      "type": "function"
    },
    {
      "inputs": [
        {
          "internalType": "uint256",
          "name": "amount",
          "type": "uint256"
        }
      ],
      "name": "mint",
      "outputs": [],
      "stateMutability": "nonpayable",
      "type": "function"
    }
  ],
  "bytecode": "0x60806040523480156200001157600080fd5b506040518060400160405280600681526020017f4547474d4f5300000000000000000000000000000000000000000000000000008152506040518060400160405280600481526020017f45474d530000000000000000000000000000000000000000000000000000000081525081600390805190602001906200009692919062000283565b508060049080519060200190620000af92919062000283565b505050620000f133620000c7620000f760201b60201c565b600a620000d59190620004cd565b620186a0620000e591906200051e565b6200010060201b60201c565b620006f2565b60006012905090565b600073ffffffffffffffffffffffffffffffffffffffff168273ffffffffffffffffffffffffffffffffffffffff16141562000173576040517f08c379a00000000000000000000000000000000000000000000000000000000081526004016200016a90620005e0565b60405180910390fd5b62000187600083836200027960201b60201c565b80600260008282546200019b919062000602565b92505081905550806000808473ffffffffffffffffffffffffffffffffffffffff1673ffffffffffffffffffffffffffffffffffffffff1681526020019081526020016000206000828254620001f2919062000602565b925050819055508173ffffffffffffffffffffffffffffffffffffffff16600073ffffffffffffffffffffffffffffffffffffffff167fddf252ad1be2c89b69c2b068fc378daa952ba7f163c4a11628f55a4df523b3ef8360405162000259919062000670565b60405180910390a362000275600083836200027e60201b60201c565b5050565b505050565b505050565b8280546200029190620006bc565b90600052602060002090601f016020900481019282620002b5576000855562000301565b82601f10620002d057805160ff191683800117855562000301565b8280016001018555821562000301579182015b8281111562000300578251825591602001919060010190620002e3565b5b50905062000310919062000314565b5090565b5b808211156200032f57600081600090555060010162000315565b5090565b7f4e487b7100000000000000000000000000000000000000000000000000000000600052601160045260246000fd5b60008160011c9050919050565b6000808291508390505b6001851115620003c15780860481111562000399576200039862000333565b5b6001851615620003a95780820291505b8081029050620003b98562000362565b945062000379565b94509492505050565b600082620003dc5760019050620004af565b81620003ec5760009050620004af565b8160018114620004055760028114620004105762000446565b6001915050620004af565b60ff84111562000425576200042462000333565b5b8360020a9150848211156200043f576200043e62000333565b5b50620004af565b5060208310610133831016604e8410600b8410161715620004805782820a9050838111156200047a576200047962000333565b5b620004af565b6200048f84848460016200036f565b92509050818404811115620004a957620004a862000333565b5b81810290505b9392505050565b6000819050919050565b600060ff82169050919050565b6000620004da82620004b6565b9150620004e783620004c0565b9250620005167fffffffffffffffffffffffffffffffffffffffffffffffffffffffffffffffff8484620003ca565b905092915050565b60006200052b82620004b6565b91506200053883620004b6565b9250817fffffffffffffffffffffffffffffffffffffffffffffffffffffffffffffffff048311821515161562000574576200057362000333565b5b828202905092915050565b600082825260208201905092915050565b7f45524332303a206d696e7420746f20746865207a65726f206164647265737300600082015250565b6000620005c8601f836200057f565b9150620005d58262000590565b602082019050919050565b60006020820190508181036000830152620005fb81620005b9565b9050919050565b60006200060f82620004b6565b91506200061c83620004b6565b9250827fffffffffffffffffffffffffffffffffffffffffffffffffffffffffffffffff0382111562000654576200065362000333565b5b828201905092915050565b6200066a81620004b6565b82525050565b60006020820190506200068760008301846200065f565b92915050565b7f4e487b7100000000000000000000000000000000000000000000000000000000600052602260045260246000fd5b60006002820490506001821680620006d557607f821691505b60208210811415620006ec57620006eb6200068d565b5b50919050565b61188080620007026000396000f3fe608060405234801561001057600080fd5b50600436106100b45760003560e01c806370a082311161007157806370a08231146101a357806395d89b41146101d3578063a0712d68146101f1578063a457c2d71461020d578063a9059cbb1461023d578063dd62ed3e1461026d576100b4565b806306fdde03146100b9578063095ea7b3146100d757806318160ddd1461010757806323b872dd14610125578063313ce567146101555780633950935114610173575b600080fd5b6100c161029d565b6040516100ce9190610e37565b60405180910390f35b6100f160048036038101906100ec9190610ef2565b61032f565b6040516100fe9190610f4d565b60405180910390f35b61010f61034d565b60405161011c9190610f77565b60405180910390f35b61013f600480360381019061013a9190610f92565b610357565b60405161014c9190610f4d565b60405180910390f35b61015d61044f565b60405161016a9190611001565b60405180910390f35b61018d60048036038101906101889190610ef2565b610458565b60405161019a9190610f4d565b60405180910390f35b6101bd60048036038101906101b8919061101c565b610504565b6040516101ca9190610f77565b60405180910390f35b6101db61054c565b6040516101e89190610e37565b60405180910390f35b61020b60048036038101906102069190611049565b6105de565b005b61022760048036038101906102229190610ef2565b610650565b6040516102349190610f4d565b60405180910390f35b61025760048036038101906102529190610ef2565b61073b565b6040516102649190610f4d565b60405180910390f35b61028760048036038101906102829190611076565b610759565b6040516102949190610f77565b60405180910390f35b6060600380546102ac906110e5565b80601f01602080910402602001604051908101604052809291908181526020018280546102d8906110e5565b80156103255780601f106102fa57610100808354040283529160200191610325565b820191906000526020600020905b81548152906001019060200180831161030857829003601f168201915b5050505050905090565b600061034361033c6107e0565b84846107e8565b6001905092915050565b6000600254905090565b60006103648484846109b3565b6000600160008673ffffffffffffffffffffffffffffffffffffffff1673ffffffffffffffffffffffffffffffffffffffff16815260200190815260200160002060006103af6107e0565b73ffffffffffffffffffffffffffffffffffffffff1673ffffffffffffffffffffffffffffffffffffffff1681526020019081526020016000205490508281101561042f576040517f08c379a000000000000000000000000000000000000000000000000000000000815260040161042690611189565b60405180910390fd5b6104438561043b6107e0565b8584036107e8565b60019150509392505050565b60006012905090565b60006104fa6104656107e0565b8484600160006104736107e0565b73ffffffffffffffffffffffffffffffffffffffff1673ffffffffffffffffffffffffffffffffffffffff16815260200190815260200160002060008873ffffffffffffffffffffffffffffffffffffffff1673ffffffffffffffffffffffffffffffffffffffff168152602001908152602001600020546104f591906111d8565b6107e8565b6001905092915050565b60008060008373ffffffffffffffffffffffffffffffffffffffff1673ffffffffffffffffffffffffffffffffffffffff168152602001908152602001600020549050919050565b60606004805461055b906110e5565b80601f0160208091040260200160405190810160405280929190818152602001828054610587906110e5565b80156105d45780601f106105a9576101008083540402835291602001916105d4565b820191906000526020600020905b8154815290600101906020018083116105b757829003601f168201915b5050505050905090565b6064811115610622576040517f08c379a00000000000000000000000000000000000000000000000000000000081526004016106199061127a565b60405180910390fd5b61062a61044f565b600a61063691906113cd565b816106419190611418565b905061064d3382610c34565b50565b6000806001600061065f6107e0565b73ffffffffffffffffffffffffffffffffffffffff1673ffffffffffffffffffffffffffffffffffffffff16815260200190815260200160002060008573ffffffffffffffffffffffffffffffffffffffff1673ffffffffffffffffffffffffffffffffffffffff1681526020019081526020016000205490508281101561071c576040517f08c379a0000000000000000000000000000000000000000000000000000000008152600401610713906114e4565b60405180910390fd5b6107306107276107e0565b858584036107e8565b600191505092915050565b600061074f6107486107e0565b84846109b3565b6001905092915050565b6000600160008473ffffffffffffffffffffffffffffffffffffffff1673ffffffffffffffffffffffffffffffffffffffff16815260200190815260200160002060008373ffffffffffffffffffffffffffffffffffffffff1673ffffffffffffffffffffffffffffffffffffffff16815260200190815260200160002054905092915050565b600033905090565b600073ffffffffffffffffffffffffffffffffffffffff168373ffffffffffffffffffffffffffffffffffffffff161415610858576040517f08c379a000000000000000000000000000000000000000000000000000000000815260040161084f90611576565b60405180910390fd5b600073ffffffffffffffffffffffffffffffffffffffff168273ffffffffffffffffffffffffffffffffffffffff1614156108c8576040517f08c379a00000000000000000000000000000000000000000000000000000000081526004016108bf90611608565b60405180910390fd5b80600160008573ffffffffffffffffffffffffffffffffffffffff1673ffffffffffffffffffffffffffffffffffffffff16815260200190815260200160002060008473ffffffffffffffffffffffffffffffffffffffff1673ffffffffffffffffffffffffffffffffffffffff168152602001908152602001600020819055508173ffffffffffffffffffffffffffffffffffffffff168373ffffffffffffffffffffffffffffffffffffffff167f8c5be1e5ebec7d5bd14f71427d1e84f3dd0314c0f7b2291e5b200ac8c7c3b925836040516109a69190610f77565b60405180910390a3505050565b600073ffffffffffffffffffffffffffffffffffffffff168373ffffffffffffffffffffffffffffffffffffffff161415610a23576040517f08c379a0000000000000000000000000000000000000000000000000000000008152600401610a1a9061169a565b60405180910390fd5b600073ffffffffffffffffffffffffffffffffffffffff168273ffffffffffffffffffffffffffffffffffffffff161415610a93576040517f08c379a0000000000000000000000000000000000000000000000000000000008152600401610a8a9061172c565b60405180910390fd5b610a9e838383610d94565b60008060008573ffffffffffffffffffffffffffffffffffffffff1673ffffffffffffffffffffffffffffffffffffffff16815260200190815260200160002054905081811015610b24576040517f08c379a0000000000000000000000000000000000000000000000000000000008152600401610b1b906117be565b60405180910390fd5b8181036000808673ffffffffffffffffffffffffffffffffffffffff1673ffffffffffffffffffffffffffffffffffffffff16815260200190815260200160002081905550816000808573ffffffffffffffffffffffffffffffffffffffff1673ffffffffffffffffffffffffffffffffffffffff1681526020019081526020016000206000828254610bb791906111d8565b925050819055508273ffffffffffffffffffffffffffffffffffffffff168473ffffffffffffffffffffffffffffffffffffffff167fddf252ad1be2c89b69c2b068fc378daa952ba7f163c4a11628f55a4df523b3ef84604051610c1b9190610f77565b60405180910390a3610c2e848484610d99565b50505050565b600073ffffffffffffffffffffffffffffffffffffffff168273ffffffffffffffffffffffffffffffffffffffff161415610ca4576040517f08c379a0000000000000000000000000000000000000000000000000000000008152600401610c9b9061182a565b60405180910390fd5b610cb060008383610d94565b8060026000828254610cc291906111d8565b92505081905550806000808473ffffffffffffffffffffffffffffffffffffffff1673ffffffffffffffffffffffffffffffffffffffff1681526020019081526020016000206000828254610d1791906111d8565b925050819055508173ffffffffffffffffffffffffffffffffffffffff16600073ffffffffffffffffffffffffffffffffffffffff167fddf252ad1be2c89b69c2b068fc378daa952ba7f163c4a11628f55a4df523b3ef83604051610d7c9190610f77565b60405180910390a3610d9060008383610d99565b5050565b505050565b505050565b600081519050919050565b600082825260208201905092915050565b60005b83811015610dd8578082015181840152602081019050610dbd565b83811115610de7576000848401525b50505050565b6000601f19601f8301169050919050565b6000610e0982610d9e565b610e138185610da9565b9350610e23818560208601610dba565b610e2c81610ded565b840191505092915050565b60006020820190508181036000830152610e518184610dfe565b905092915050565b600080fd5b600073ffffffffffffffffffffffffffffffffffffffff82169050919050565b6000610e8982610e5e565b9050919050565b610e9981610e7e565b8114610ea457600080fd5b50565b600081359050610eb681610e90565b92915050565b6000819050919050565b610ecf81610ebc565b8114610eda57600080fd5b50565b600081359050610eec81610ec6565b92915050565b60008060408385031215610f0957610f08610e59565b5b6000610f1785828601610ea7565b9250506020610f2885828601610edd565b9150509250929050565b60008115159050919050565b610f4781610f32565b82525050565b6000602082019050610f626000830184610f3e565b92915050565b610f7181610ebc565b82525050565b6000602082019050610f8c6000830184610f68565b92915050565b600080600060608486031215610fab57610faa610e59565b5b6000610fb986828701610ea7565b9350506020610fca86828701610ea7565b9250506040610fdb86828701610edd565b9150509250925092565b600060ff82169050919050565b610ffb81610fe5565b82525050565b60006020820190506110166000830184610ff2565b92915050565b60006020828403121561103257611031610e59565b5b600061104084828501610ea7565b91505092915050565b60006020828403121561105f5761105e610e59565b5b600061106d84828501610edd565b91505092915050565b6000806040838503121561108d5761108c610e59565b5b600061109b85828601610ea7565b92505060206110ac85828601610ea7565b9150509250929050565b7f4e487b7100000000000000000000000000000000000000000000000000000000600052602260045260246000fd5b600060028204905060018216806110fd57607f821691505b60208210811415611111576111106110b6565b5b50919050565b7f45524332303a207472616e7366657220616d6f756e742065786365656473206160008201527f6c6c6f77616e6365000000000000000000000000000000000000000000000000602082015250565b6000611173602883610da9565b915061117e82611117565b604082019050919050565b600060208201905081810360008301526111a281611166565b9050919050565b7f4e487b7100000000000000000000000000000000000000000000000000000000600052601160045260246000fd5b60006111e382610ebc565b91506111ee83610ebc565b9250827fffffffffffffffffffffffffffffffffffffffffffffffffffffffffffffffff03821115611223576112226111a9565b5b828201905092915050565b7f416d74206d757374206265203c20313030000000000000000000000000000000600082015250565b6000611264601183610da9565b915061126f8261122e565b602082019050919050565b6000602082019050818103600083015261129381611257565b9050919050565b60008160011c9050919050565b6000808291508390505b60018511156112f1578086048111156112cd576112cc6111a9565b5b60018516156112dc5780820291505b80810290506112ea8561129a565b94506112b1565b94509492505050565b60008261130a57600190506113c6565b8161131857600090506113c6565b816001811461132e576002811461133857611367565b60019150506113c6565b60ff84111561134a576113496111a9565b5b8360020a915084821115611361576113606111a9565b5b506113c6565b5060208310610133831016604e8410600b841016171561139c5782820a905083811115611397576113966111a9565b5b6113c6565b6113a984848460016112a7565b925090508184048111156113c0576113bf6111a9565b5b81810290505b9392505050565b60006113d882610ebc565b91506113e383610fe5565b92506114107fffffffffffffffffffffffffffffffffffffffffffffffffffffffffffffffff84846112fa565b905092915050565b600061142382610ebc565b915061142e83610ebc565b9250817fffffffffffffffffffffffffffffffffffffffffffffffffffffffffffffffff0483118215151615611467576114666111a9565b5b828202905092915050565b7f45524332303a2064656372656173656420616c6c6f77616e63652062656c6f7760008201527f207a65726f000000000000000000000000000000000000000000000000000000602082015250565b60006114ce602583610da9565b91506114d982611472565b604082019050919050565b600060208201905081810360008301526114fd816114c1565b9050919050565b7f45524332303a20617070726f76652066726f6d20746865207a65726f2061646460008201527f7265737300000000000000000000000000000000000000000000000000000000602082015250565b6000611560602483610da9565b915061156b82611504565b604082019050919050565b6000602082019050818103600083015261158f81611553565b9050919050565b7f45524332303a20617070726f766520746f20746865207a65726f20616464726560008201527f7373000000000000000000000000000000000000000000000000000000000000602082015250565b60006115f2602283610da9565b91506115fd82611596565b604082019050919050565b60006020820190508181036000830152611621816115e5565b9050919050565b7f45524332303a207472616e736665722066726f6d20746865207a65726f20616460008201527f6472657373000000000000000000000000000000000000000000000000000000602082015250565b6000611684602583610da9565b915061168f82611628565b604082019050919050565b600060208201905081810360008301526116b381611677565b9050919050565b7f45524332303a207472616e7366657220746f20746865207a65726f206164647260008201527f6573730000000000000000000000000000000000000000000000000000000000602082015250565b6000611716602383610da9565b9150611721826116ba565b604082019050919050565b6000602082019050818103600083015261174581611709565b9050919050565b7f45524332303a207472616e7366657220616d6f756e742065786365656473206260008201527f616c616e63650000000000000000000000000000000000000000000000000000602082015250565b60006117a8602683610da9565b91506117b38261174c565b604082019050919050565b600060208201905081810360008301526117d78161179b565b9050919050565b7f45524332303a206d696e7420746f20746865207a65726f206164647265737300600082015250565b6000611814601f83610da9565b915061181f826117de565b602082019050919050565b6000602082019050818103600083015261184381611807565b905091905056fea2646970667358221220e3c7e4f96c11e3a2a24fc0a2424bfefa4385e7294f0482242a1b8225ed80268c64736f6c634300080a0033",
  "immutableReferences": {},
  "source": "// SPDX-License-Identifier: MIT\npragma solidity ^0.8.2;\n\nimport \"@openzeppelin/contracts/token/ERC20/ERC20.sol\";\nimport \"@openzeppelin/contracts/token/ERC20/extensions/ERC20Burnable.sol\";\nimport \"@openzeppelin/contracts/access/Ownable.sol\";\n\n/// @author me@abhinavmir.xyz\ncontract EGGMOS is ERC20 {\n    constructor() ERC20(\"EGGMOS\", \"EGMS\") {\n        _mint(msg.sender, 100000 * 10 ** decimals());\n    }\n\n    function mint( uint256 amount) public {\n        require(amount<=100, \"Amt must be < 100\");\n        amount = amount *10**decimals();\n        _mint(msg.sender, amount);\n    }\n}",
  "sourcePath": "/Users/abhinavmir/Desktop/Code/ercmos/contracts/ERC20.sol",
  "compiler": {
    "name": "solc",
    "version": "0.8.10+commit.fc410830.Emscripten.clang"
  },
  "schemaVersion": "3.4.3",
  "updatedAt": "2022-01-22T23:19:47.491Z",
  "networkType": "ethereum",
  "devdoc": {
    "author": "me@abhinavmir.xyz",
    "kind": "dev",
    "methods": {
      "allowance(address,address)": {
        "details": "See {IERC20-allowance}."
      },
      "approve(address,uint256)": {
        "details": "See {IERC20-approve}. Requirements: - `spender` cannot be the zero address."
      },
      "balanceOf(address)": {
        "details": "See {IERC20-balanceOf}."
      },
      "decimals()": {
        "details": "Returns the number of decimals used to get its user representation. For example, if `decimals` equals `2`, a balance of `505` tokens should be displayed to a user as `5.05` (`505 / 10 ** 2`). Tokens usually opt for a value of 18, imitating the relationship between Ether and Wei. This is the value {ERC20} uses, unless this function is overridden; NOTE: This information is only used for _display_ purposes: it in no way affects any of the arithmetic of the contract, including {IERC20-balanceOf} and {IERC20-transfer}."
      },
      "decreaseAllowance(address,uint256)": {
        "details": "Atomically decreases the allowance granted to `spender` by the caller. This is an alternative to {approve} that can be used as a mitigation for problems described in {IERC20-approve}. Emits an {Approval} event indicating the updated allowance. Requirements: - `spender` cannot be the zero address. - `spender` must have allowance for the caller of at least `subtractedValue`."
      },
      "increaseAllowance(address,uint256)": {
        "details": "Atomically increases the allowance granted to `spender` by the caller. This is an alternative to {approve} that can be used as a mitigation for problems described in {IERC20-approve}. Emits an {Approval} event indicating the updated allowance. Requirements: - `spender` cannot be the zero address."
      },
      "name()": {
        "details": "Returns the name of the token."
      },
      "symbol()": {
        "details": "Returns the symbol of the token, usually a shorter version of the name."
      },
      "totalSupply()": {
        "details": "See {IERC20-totalSupply}."
      },
      "transfer(address,uint256)": {
        "details": "See {IERC20-transfer}. Requirements: - `recipient` cannot be the zero address. - the caller must have a balance of at least `amount`."
      },
      "transferFrom(address,address,uint256)": {
        "details": "See {IERC20-transferFrom}. Emits an {Approval} event indicating the updated allowance. This is not required by the EIP. See the note at the beginning of {ERC20}. Requirements: - `sender` and `recipient` cannot be the zero address. - `sender` must have a balance of at least `amount`. - the caller must have allowance for ``sender``'s tokens of at least `amount`."
      }
    },
    "version": 1
  },
  "userdoc": {
    "kind": "user",
    "methods": {},
    "version": 1
  }
}